:100000000C9462000C948A000C948A000C948A0070
:100010000C948A000C948A000C948A000C948A0038
:100020000C948A000C948A000C948A000C948A0028
:100030000C948A000C948A000C948A000C948A0018
:100040000C946D040C948A000C94DD040C94B70499
:100050000C948A000C948A000C948A000C948A00F8
:100060000C948A000C948A000000000023002600F3
:10007000290000000000240027002A0000000000E2
:10008000250028002B0004040404040404040202D4
:100090000202020203030303030301020408102007
:1000A0004080010204081020010204081020000012
:1000B0000008000201000003040700000000000027
:1000C00000000E0511241FBECFEFD8E0DEBFCDBF6C
:1000D00022E0ACE4B1E001C01D92A23FB207E1F71B
:1000E00011E0A0E0B1E0E8E7F2E102C005900D9276
:1000F000AC34B107D9F710E0C2E6D0E004C02197D4
:10010000FE010E947408C136D107C9F70E94440558
:100110000C943A090C9400004F925F926F927F9278
:100120008F929F92CF92DF92EF92FF920F931F9345
:10013000CF93DF932CE3C22ED12CE12CF12CA7011D
:1001400096010E94090960939201CA01B901A701B1
:1001500096010E94090960939301CA01B90128E13F
:1001600030E040E050E00E94090929013A01609323
:100170009401CA01B9016C5F7F4F8F4F9F4F27E0F9
:1001800030E040E050E00E9409096F5F6093950104
:10019000C12CD12C760120E004E610E030E9832E5A
:1001A00099249394E22FF0E0EE54F84FEF01C370DE
:1001B000DD27209789F4CF01B8010E944508892BDB
:1001C00031F4CF01B4010E944508892B29F48EE651
:1001D00091E0A0E0B0E004C08DE691E0A0E0B0E0E6
:1001E000C80ED91EEA1EFB1ED701C601AA27BB27CF
:1001F000481659066A067B0610F02F5FD3CF20936E
:100200009801209799F4CF0164E670E00E944508B8
:10021000892B39F4CF0160E971E00E944508892BF0
:1002200029F48EE691E0A0E0B0E004C08DE691E014
:10023000A0E0B0E0C81AD90AEA0AFB0A93018201D9
:100240000C191D092E093F09CF0164E670E00E94D8
:1002500045087C01CF0160E971E00E944508ECE2AD
:10026000F1E0A0E0A13041F4209751F4E114F10451
:1002700029F4009729F402C0408103C04DE101C078
:100280004CE150E060E070E00417150726073707DF
:1002900040F0041B150B260B370BAF5F3196AC30CB
:1002A00009F7AF5FA09397010F5F00939601DF916D
:1002B000CF911F910F91FF90EF90DF90CF909F9083
:1002C0008F907F906F905F904F900895833081F072
:1002D00028F4813099F08230A1F008958730A9F098
:1002E0008830B9F08430D1F4809180008F7D03C0D4
:1002F000809180008F7780938000089584B58F77F8
:1003000002C084B58F7D84BD08958091B0008F7741
:1003100003C08091B0008F7D8093B00008951F933B
:10032000CF93DF93282F30E0F901E255FF4F8491FE
:10033000F901E656FF4FD491F901EA57FF4FC491F6
:10034000CC23C9F0162F81110E946601EC2FF0E03A
:10035000EE0FFF1FE458FF4FA591B4918FB7F894AB
:10036000111105C09C91ED2FE095E92302C0EC919D
:10037000ED2BEC938FBFDF91CF911F910895FF92EA
:100380000F931F93CF93DF938B30B0F494E0899F4A
:10039000E001112406EC12E084E0F82EF00EF801E2
:1003A0000F5F1F4FDF01AC0FBD1F14966C91808152
:1003B0000E948F01F012F3CFDF91CF911F910F9127
:1003C000FF9008950F931F93CF930EE811E0C9E0BB
:1003D000F80161918F018C2F0E948F01C150C530AF
:1003E000B9F7CF911F910F910895CF93DF9390E0CC
:1003F000FC01E656FF4F2491FC01EA57FF4F849120
:10040000882361F190E0880F991FFC01EE58FF4F9F
:10041000C591D491FC01E458FF4FA591B4916111AD
:1004200009C09FB7F8948881209582238883EC9136
:100430002E230BC0623061F49FB7F8943881822F6D
:10044000809583238883EC912E2B2C939FBF06C02D
:100450008FB7F894E8812E2B28838FBFDF91CF913F
:1004600008958E3008F08E508770806480937C00F1
:1004700080917A00806480937A0080917A0086FD72
:10048000FCCF809178002091790090E0922B089524
:100490003FB7F89480918A0190918B01A0918C01D3
:1004A000B0918D0126B5A89B05C02F3F19F001968C
:1004B000A11DB11D3FBFBA2FA92F982F8827820FEA
:1004C000911DA11DB11DBC01CD0142E0660F771F3A
:1004D000881F991F4A95D1F708952FB7F894609116
:1004E00086017091870180918801909189012FBFC9
:1004F0000895CF92DF92EF92FF920F931F93CF93C5
:10050000DF936C017A018B01C0E0D0E0CE15DF05EE
:1005100089F0D8016D918D01D601ED91FC9101908A
:10052000F081E02DC6010995892B11F47E0102C0EE
:100530002196ECCFC701DF91CF911F910F91FF90D2
:10054000EF90DF90CF900895FC01918D828D9817E8
:1005500059F0828DDF01A80FB11D5D968C91928DAF
:100560009F5F928F90E008958FEF9FEF0895FC01B9
:10057000918D828D981731F0828DE80FF11D858D58
:1005800090E008958FEF9FEF0895FC01918D828D8B
:10059000981B892F90E0089589E991E00E94C50297
:1005A00021E0892B09F420E0822F0895FC01848D3D
:1005B000DF01A80FB11DA35EBE4F2C91848D90E08A
:1005C00001968F709927848FA689B7892C93A0896B
:1005D000B1898C9180648C93938D848D981306C01F
:1005E0000288F389E02D80818F7D80830895EF92CA
:1005F000FF920F931F93CF93DF93EC0181E0888FDD
:100600009B8D8C8D981305C0E889F989808185FDC3
:1006100024C0F62E0B8D10E00F5F1F4F0F701127B7
:10062000E02E8C8DE8120CC00FB607FCFACFE889DB
:10063000F989808185FFF5CFCE010E94D602F1CFE6
:100640008B8DFE01E80FF11DE35EFE4FF0820B8FF4
:10065000EA89FB898081806207C0EE89FF89608317
:10066000E889F98980818064808381E090E0DF916E
:10067000CF911F910F91FF90EF900895CF93DF934B
:10068000EC01888D8823C9F0EA89FB89808185FD8A
:1006900005C0A889B9898C9186FD0FC00FB607FCEB
:1006A000F5CF808185FFF2CFA889B9898C9185FF2C
:1006B000EDCFCE010E94D602E7CFDF91CF91089512
:1006C00080E090E0892B29F00E94CC0281110C94EB
:1006D00000000895CF92DF92EF92FF920F931F9345
:1006E0000E946D02C0905401D0905501E0905601D7
:1006F000F09057018B019C010C191D092E093F092F
:100700008091580190915901A0915A01B0915B01DB
:10071000083E134021053105D0F00196A11DB11D01
:100720008093580190935901A0935A01B0935B01B3
:10073000B701A60148515C4F6F4F7F4F4093540162
:10074000509355016093560170935701C9CF409162
:1007500050015091510160915201709153018417E1
:100760009507A607B70708F456C0E0914E01F0912F
:100770004F01309709F44FC0099561157105810546
:10078000910539F1609358017093590180935A0192
:1007900090935B01DC01CB01845D9E4FAF4FBF4F57
:1007A0008093500190935101A0935201B093530153
:1007B00082E090E090934D0180934C010E946D0285
:1007C00060935401709355018093560190935701A3
:1007D00022C08091580190915901A0915A01B09185
:1007E0005B01845D9E4FAF4FBF4F8093500190934C
:1007F0005101A0935201B093530181E090E0209108
:100800004C0130914D01232B11F480E090E0909346
:100810004D0180934C016091580170915901809174
:100820005A0190915B011F910F91FF90EF90DF9023
:10083000CF9008958F929F92AF92BF920F931F9384
:10084000CF93DF93CDB7DEB7A1970FB6F894DEBF95
:100850000FBECDBF19A2423008F44AE08E010F5DF1
:100860001F4F842E912CA12CB12CA50194010E9424
:100870000909E62FB901CA0101501109EA3014F43F
:10088000E05D01C0E95CD801EC93232B242B252BE0
:1008900061F70115110571F0F80101900020E9F7E9
:1008A0003197AF01401B510BB80189E991E00E94DB
:1008B000790202C080E090E0A1960FB6F894DEBF06
:1008C0000FBECDBFDF91CF911F910F91BF90AF9021
:1008D0009F908F9008950E94E5081F920F920FB687
:1008E0000F9211242F933F938F939F93AF93BF93B6
:1008F0008091860190918701A0918801B091890132
:100900003091850123E0230F2D3720F40196A11D9E
:10091000B11D05C026E8230F0296A11DB11D20932D
:1009200085018093860190938701A0938801B093FD
:10093000890180918A0190918B01A0918C01B091E5
:100940008D010196A11DB11D80938A0190938B01A9
:10095000A0938C01B0938D01BF91AF919F918F9126
:100960003F912F910F900FBE0F901F9018951F92DF
:100970000F920FB60F9211242F933F934F935F93D3
:100980006F937F938F939F93AF93BF93EF93FF9357
:1009900089E991E00E94D602FF91EF91BF91AF915A
:1009A0009F918F917F916F915F914F913F912F9187
:1009B0000F900FBE0F901F9018951F920F920FB6B9
:1009C0000F9211242F938F939F93EF93FF93E091B6
:1009D000A901F091AA018081E091AF01F091B001ED
:1009E00082FD11C090818091B2018F5F2091B3018F
:1009F000821751F0E091B201F0E0E756FE4F958F7B
:100A00008093B20101C08081FF91EF919F918F91FE
:100A10002F910F900FBE0F901F901895E9E9F1E00C
:100A20001382128288EE93E0A0E0B0E08483958385
:100A3000A683B7838CE391E09183808385EC90E07B
:100A40009587848784EC90E09787868780EC90E098
:100A5000918B808B81EC90E0938B828B82EC90E089
:100A6000958B848B86EC90E0978B868B118E128E03
:100A7000138E148E88E2E4E0F1E0AAECB2E001907B
:100A80000D928A95E1F70895789484B5826084BDCB
:100A900084B5816084BD85B5826085BD85B5816082
:100AA00085BD80916E00816080936E001092810000
:100AB00080918100826080938100809181008160BB
:100AC000809381008091800081608093800080917C
:100AD000B10084608093B1008091B0008160809308
:100AE000B00080917A00846080937A0080917A00CF
:100AF000826080937A0080917A00816080937A008E
:100B000080917A00806880937A001092C10061E041
:100B100089E00E94F50161E088E00E94F50161E052
:100B200087E00E94F50161E086E00E94F5018AE01D
:100B30008093C6028BE08093C7028CE08093C8024A
:100B40008DE08093C902C6ECD2E01C2F1C5F61E0EF
:100B500089910E94F5011C13FACF61E084E00E94A4
:100B6000F50161E084E00E948F011092670160E06E
:100B700080E10E94F50160E081E10E94F50160E002
:100B800082E10E94F50160E083E10E94F50160E0EE
:100B90008EE00E94F50160E08FE00E94F501E09197
:100BA000A901F091AA0182E08083E091A501F09172
:100BB000A6011082E091A701F091A80183E3808350
:100BC0001092B101E091AD01F091AE0186E0808319
:100BD000E091AB01F091AC01808180618083E09174
:100BE000AB01F091AC01808188608083E091AB0122
:100BF000F091AC01808180688083E091AB01F0913D
:100C0000AC0180818F7D80830E9448024B015C0192
:100C100068EEC62E63E0D62EE12CF12C0E9448022D
:100C2000DC01CB0188199909AA09BB09883E9340C8
:100C3000A105B10558F081E0C81AD108E108F10812
:100C4000E8EE8E0EE3E09E1EA11CB11CC114D1047F
:100C5000E104F10419F70E946D0260937101709331
:100C6000720180937301909374010E946D026093EE
:100C700075017093760180937701909378010E94BB
:100C80006D026093790170937A0180937B01909358
:100C90007C010E946D0260937D0170937E018093C0
:100CA0007F019093800192E0292EC1E023E0322E53
:100CB000412C512C32014A9403EB10E04FE9A42E51
:100CC00040E0B42E5BE8852E50E0952ED6EF0E94D2
:100CD0006D02C0907101D0907201E0907301F090AC
:100CE0007401DC01CB018C199D09AE09BF090A977B
:100CF000A105B10508F457C080916601813041F12A
:100D0000B0F08230B1F1833009F043C010928E010F
:100D100010928F0110929001C09391010E94E20104
:100D2000809160010E94BF011092660132C0C093A1
:100D30008E0110928F0110929001109291010E94E9
:100D4000E201809163010E94BF01C093660121C04E
:100D500010928E0180938F01109290011092910158
:100D60000E94E201809162010E94BF01209266010F
:100D700010C010928E0110928F01C09390011092BA
:100D800091010E94E201809161010E94BF013092B5
:100D900066010E946D0260937101709372018093ED
:100DA0007301909374010E946D02C0907501D09000
:100DB0007601E0907701F0907801DC01CB018C198D
:100DC0009D09AE09BF094497A105B10550F00E94E5
:100DD0006D02609375017093760180937701909313
:100DE00078010E946D02C0907901D0907A01E09064
:100DF0007B01F0907C01DC01CB018C199D09AE09CF
:100E0000BF09843F9140A105B105E8F160916301FC
:100E100070E080E090E04AE00E941A046091620174
:100E200070E080E090E04AE00E941A04E0919901AD
:100E3000F0919A010190F081E02D6CE289E991E056
:100E400009956091610170E080E090E04AE00E94C5
:100E50001A046091600170E080E090E04AE00E9436
:100E60001A0442E050E068E471E089E991E00E94F0
:100E700079020E946D026093790170937A018093E8
:100E80007B0190937C010E946D02C0907D01D09007
:100E90007E01E0907F01F0908001DC01CB018C1994
:100EA0009D09AE09BF09883E9340A105B10508F42C
:100EB000DDC08EE00E9431022AE030E0DC010E94B9
:100EC0005908A30192010E94EA08CA01B9010E94CF
:100ED00081086B017C0160936D0170936E018093BA
:100EE0006F01909370018FE00E9431022FE030E09B
:100EF000DC010E945908A30192010E94EA08CA017C
:100F0000B9010E9481086093690170936A0180931E
:100F10006B0190936C0126E636E646EE50E4C7017D
:100F2000B6010E947A0887FF06C060E084E00E9454
:100F30008F01C093670180916701882381F026E6C5
:100F400036E646E051E4C701B6010E94E00887FD9D
:100F500006C061E084E00E948F0110926701F801F1
:100F60008491F501F490F401E490EE20A1F0811158
:100F70000E946601EE2DF0E0EE0FFF1FE859FF4FD3
:100F8000A591B4918C91F82291E080E009F490E071
:100F9000692F782F02C060E070E0F1E06F2785E0F4
:100FA0000E948F010E946A036B017C0180915C01A9
:100FB00090915D01A0915E01B0915F01C816D906C4
:100FC000EA06FB0661F0C701B6010E948C00C092E0
:100FD0005C01D0925D01E0925E01F0925F01809130
:100FE0009401809365010E946A036B017C018091EA
:100FF0005C0190915D01A0915E01B0915F01C81606
:10100000D906EA06FB0661F0C701B6010E948C0012
:10101000C0925C01D0925D01E0925E01F0925F01AE
:101020002091930120936401309165014AE0832F60
:10103000642F0E943908809363018D9F300D112425
:1010400030936201822F0E943908809361018D9F45
:10105000200D1124209360010E946D0260937D0198
:1010600070937E0180937F01909380010E946003C2
:101070002ECE991B79E004C0991F961708F0961B95
:10108000881F7A95C9F78095089597FB072E16F467
:10109000009407D077FD09D00E94600807FC05D0B6
:1010A0003EF4909581959F4F0895709561957F4F7F
:1010B00008950E942B09B7FF0895821B930B089592
:1010C000AA1BBB1B51E107C0AA1FBB1FA617B7076E
:1010D00010F0A61BB70B881F991F5A95A9F780958A
:1010E0009095BC01CD010895EE0FFF1F0590F4917E
:1010F000E02D09940E94BC0808F481E00895E8946A
:1011000009C097FB3EF490958095709561957F4F4F
:101110008F4F9F4F9923A9F0F92F96E9BB279395FD
:10112000F695879577956795B795F111F8CFFAF40D
:10113000BB0F11F460FF1BC06F5F7F4F8F4F9F4F3E
:1011400016C0882311F096E911C0772321F09EE89C
:10115000872F762F05C0662371F096E8862F70E002
:1011600060E02AF09A95660F771F881FDAF7880FDC
:101170009695879597F90895990F0008550FAA0B32
:10118000E0E8FEEF16161706E807F907C0F012169A
:101190001306E407F50798F0621B730B840B950B9D
:1011A00039F40A2661F0232B242B252B21F40895F2
:1011B0000A2609F4A140A6958FEF811D811D08958F
:1011C0000E94BC0808F48FEF089581E090E0F89445
:1011D0000C943A09052E97FB1EF400940E94010915
:1011E00057FD07D00E94090907FC03D04EF40C9468
:1011F000010950954095309521953F4F4F4F5F4FD6
:10120000089590958095709561957F4F8F4F9F4F72
:101210000895A1E21A2EAA1BBB1BFD010DC0AA1F37
:10122000BB1FEE1FFF1FA217B307E407F50720F04F
:10123000A21BB30BE40BF50B661F771F881F991FCA
:101240001A9469F760957095809590959B01AC0113
:10125000BD01CF010895A29FB001B39FC001A39F1C
:10126000700D811D1124911DB29F700D811D1124DF
:08127000911D0895F894FFCFD1
:101278000100000000000000000000010000010063
:10128800000001010001000000010001000101004F
:101298000001010101000000010000011F1C1F1EC8
:1012A8001F1E1F1F1E1F1E1F00000000F7027902CD
:0C12B800C502A402B7023E030D0A0000AC
:00000001FF
