:100000000C9462000C948A000C948A000C948A0070
:100010000C948A000C948A000C948A000C948A0038
:100020000C948A000C948A000C948A000C948A0028
:100030000C948A000C948A000C948A000C948A0018
:100040000C94A6040C948A000C948A000C948A00E8
:100050000C948A000C948A000C948A000C948A00F8
:100060000C948A000C948A000000000024002700F1
:100070002A0000000000250028002B0000000000DE
:1000800023002600290004040404040404040202DA
:100090000202020203030303030301020408102007
:1000A0004080010204081020010204081020000012
:1000B0000008000201000003040700000000000027
:1000C00000001C0E11241FBECFEFD8E0DEBFCDBF55
:1000D00011E0A0E0B1E0E0EDFFE102C005900D927B
:1000E000AE33B107D9F721E0AEE3B1E001C01D9214
:1000F000A33DB207E1F710E0C2E6D0E004C02197CB
:10010000FE010E94B20EC136D107C9F70E94FB085A
:100110000C94E60F0C94000080916C012AE0622F91
:100120000E943A0E809359019093580180916B017F
:100130000E943A0E809357019093560108950F93B1
:100140001F9300914E0110914F0120915001309169
:100150005101DC01CB01800F911FA21FB31F8093BF
:100160004E0190934F01A0935001B09351011F9104
:100170000F9108954F925F926F927F928F929F920C
:10018000AF92BF92CF92DF92EF92FF920F931F93A5
:10019000CF93DF934B015C0180913E0190913F0131
:1001A000A0914001B091410188169906AA06BB06AC
:1001B00009F4C2C08CE3C82ED12CE12CF12CC5016E
:1001C000B401A70196010E945A0E60936201CA0110
:1001D000B901A70196010E945A0E60936301CA01FA
:1001E000B90128E130E040E050E00E945A0E690178
:1001F0007A0160936401CA01B9016C5F7F4F8F4F30
:100200009F4F27E030E040E050E00E945A0E6F5FC1
:1002100060936501412C512C320140E004E610E06E
:10022000C0E9D1E0242F30E02E54384FF901E370BB
:10023000FF27309789F4C901B8010E94460E892B27
:1002400031F4C901BE010E94460E892B29F48EE6C5
:1002500091E0A0E0B0E004C08DE691E0A0E0B0E065
:10026000480E591E6A1E7B1ED301C201AA27BB2756
:10027000C816D906EA06FB0610F04F5FD3CF4093AD
:100280006801309799F4C90164E670E00E94460E57
:10029000892B39F4C90160E971E00E94460E892B6F
:1002A00029F48EE691E0A0E0B0E004C08DE691E094
:1002B000A0E0B0E0481A590A6A0A7B0AC418D508B7
:1002C000E608F708C90164E670E00E94460EEC01FA
:1002D000C90160E971E00E94460EA8E2B1E020E0A9
:1002E000213039F4309749F4209729F4009729F404
:1002F00002C04C9103C04DE101C04CE150E060E010
:1003000070E0C416D506E606F70640F0C41AD50A12
:10031000E60AF70A2F5F11962C3011F72F5F209312
:100320006701C394C092660180923E0190923F01A2
:10033000A0924001B0924101DF91CF911F910F91A6
:10034000FF90EF90DF90CF90BF90AF909F908F90F5
:100350007F906F905F904F90089560934E017093DF
:100360004F018093500190935101DC01CB01845DDA
:100370009E4FAF4FBF4F80934A0190934B01A09384
:100380004C01B0934D0182E090E09093490180933D
:1003900048010E94EF0860934401709345018093E7
:1003A00046019093470108953F924F925F926F925A
:1003B0007F928F929F92AF92BF92CF92DF92EF92F5
:1003C000FF920F931F93CF93DF93382E962E842E98
:1003D000F90184E6E816F1042CF082EBE81A87E0D4
:1003E000F80A03C08EE1E80EF11CE0926801009368
:1003F0006701E093660130926401909263018092FC
:100400006201AE2DB0E020E833E341EE51E00E94FE
:100410008B0E2B013C0122EB37E0FF2484E6C82E33
:10042000D12CC0E9D1E0C901825B97408E159F05B0
:10043000DCF4C90183709927892B99F4C901B601AD
:100440000E94460E892B31F4C901BE010E94460E5E
:10045000892B39F480E8480E81E5581E81E0681E3A
:10046000711C2F5F3F4FDFCF8EE4E81A88EFF80A48
:10047000C70164E670E00E94460E6C01C70160E9A6
:1004800071E00E94460E5C01C1E0D0E0112783E0DC
:10049000E822FF24C017D1072CF5C230D10589F41A
:1004A000E114F10471F4C114D10419F4A114B104DC
:1004B00041F480E8480E8BE3581E86E2681E711CEA
:1004C0000FC0DE01A95DBE4FAC91B0E020E831E580
:1004D00041E050E00E948B0E460E571E681E791EAA
:1004E0002196D8CF292D30E0ACE3B0E00E947C0EFD
:1004F0006B017C01C80CD11CE11CF11C232D30E0E8
:10050000A0E1BEE00E947C0EC60ED71EE81EF91EBA
:10051000DF01BB27119720E831E541E050E00E9460
:10052000960EDC01CB018C0D9D1DAE1DBF1DBC01C7
:10053000CD01640D751D861D971DDF91CF911F9113
:100540000F91FF90EF90DF90CF90BF90AF909F9072
:100550008F907F906F905F904F903F900C94AD0183
:10056000CF92DF92EF92FF920E94EF08C090440179
:10057000D0904501E0904601F09047016C157D0553
:100580008E059F0549F00E94EF08DC01CB018C1914
:100590009D09AE09BF090AC00E94EF08A701960194
:1005A000261B370B480B590BDA01C901883E9340D3
:1005B000A105B10510F180914E0190914F01A091DC
:1005C0005001B09151010196A11DB11D80934E01C2
:1005D00090934F01A0935001B093510128EEC20EA9
:1005E00023E0D21EE11CF11CC0924401D0924501CF
:1005F000E0924601F0924701B7CF40914A015091F5
:100600004B0160914C0170914D0180914E01909190
:100610004F01A0915001B091510184179507A60791
:10062000B70788F1E0914201F0914301309759F109
:100630000995611571058105910519F00E94AD01BB
:1006400022C080914E0190914F01A0915001B09134
:100650005101845D9E4FAF4FBF4F80934A019093ED
:100660004B01A0934C01B0934D0181E090E02091AB
:10067000480130914901232B11F480E090E09093E0
:1006800049018093480160914E0170914F01809122
:10069000500190915101FF90EF90DF90CF9008951D
:1006A0000E94B0020E94BA008091670190E0089514
:1006B0000E94B0020E94BA008091660190E0089505
:1006C0000E94B0020E94BA008091630190E00895F8
:1006D0000E94B0020E94BA008091640190E00895E7
:1006E000EF92FF920F931F930E946E07A22F209309
:1006F0005A0130935B0140935C0150935D0160931C
:100700005E0170935F01809360019093610180911D
:100710005501381781F0E0905F01F0906001062FDD
:1007200010E0E52FF0E050E0632F70E09F018A2F8A
:1007300090E00E94D4010E945003809354010E94D3
:100740005803809353012AE0622F0E943A0E80934F
:10075000590190935801809154010E943A0E809360
:100760005701909356011F910F91FF90EF900895BC
:10077000EF92FF920F931F930E946E07A22F209378
:100780005A0130935B0140935C0150935D0160938B
:100790005E0170935F01809360019093610180918D
:1007A0005501381781F0E0905F01F0906001062F4D
:1007B00010E0E52FF0E050E0632F70E09F018A2FFA
:1007C00090E00E94D4010E946803809352010E942D
:1007D0006003382F80935501809152012AE0622FE7
:1007E0000E943A0E8093590190935801832F0E94E2
:1007F0003A0E80935701909356011F910F91FF90ED
:10080000EF9008951092990110929A0110929B0115
:1008100010929C010E94EC058BEC97E00197F1F798
:100820008091750182958F7090E08130910539F14A
:100830001CF4892B41F0089582309105E1F1039772
:1008400009F455C0089580917701887F803119F4AB
:100850001092990103C081E08093990110929A014E
:1008600010929B0110929C010E94EC05809159010D
:100870000E949705809175018F70806152C08091B0
:100880007701887F10929901803119F410929A01B2
:1008900003C081E080939A0110929B0110929C0109
:1008A0000E94EC05809158010E9497058091750186
:1008B0008F70806236C080917701887F1092990195
:1008C00010929A01883019F410929B0103C081E0C4
:1008D00080939B0110929C010E94EC05809157012E
:1008E0000E949705809175018F7080631AC0809176
:1008F0007701887F1092990110929A0110929B01C2
:10090000883019F410929C0103C081E080939C010F
:100910000E94EC05809156010E9497058091750117
:100920008F70809375010895CF930E94EC05C0E00D
:100930008C2F0E94970564E670E080E090E00E94B2
:10094000B508CF5FCA30A1F7CF9108951F920F92DB
:100950000FB60F9211242F933F938F939F93AF93D2
:10096000BF938091910190919201A0919301B091D8
:1009700094013091900123E0230F2D3720F401964C
:10098000A11DB11D05C026E8230F0296A11DB11DB2
:10099000209390018093910190939201A0939301F1
:1009A000B09394018091950190919601A091970147
:1009B000B09198010196A11DB11D8093950190936E
:1009C0009601A0939701B0939801BF91AF919F9129
:1009D0008F913F912F910F900FBE0F901F90189500
:1009E000833081F028F4813099F08230A1F00895AD
:1009F0008730A9F08830B9F08430D1F4809180003C
:100A00008F7D03C0809180008F7780938000089550
:100A100084B58F7702C084B58F7D84BD08958091A1
:100A2000B0008F7703C08091B0008F7D8093B000BD
:100A300008953FB7F8948091950190919601A09107
:100A40009701B091980126B5A89B05C02F3F19F0DA
:100A50000196A11DB11D3FBFBA2FA92F982F88273E
:100A6000820F911DA11DB11DBC01CD0142E0660F99
:100A7000771F881F991F4A95D1F70895CF93DF9369
:100A8000282F30E0F901E255FF4F8491F901E65635
:100A9000FF4FD491F901EA57FF4FC491CC2391F055
:100AA00081110E94F004EC2FF0E0EE0FFF1FE458DC
:100AB000FF4FA591B491EC91ED2381E090E021F4FA
:100AC00080E002C080E090E0DF91CF9108951F9315
:100AD000CF93DF93282F30E0F901E255FF4F849147
:100AE000F901E656FF4FD491F901EA57FF4FC4913F
:100AF000CC23C9F0162F81110E94F004EC2FF0E0F6
:100B0000EE0FFF1FEE58FF4FA591B4918FB7F894E9
:100B1000111105C09C91ED2FE095E92302C0EC91E5
:100B2000ED2BEC938FBFDF91CF911F910895FF9232
:100B30000F931F93CF93DF938B30F0F4893030F411
:100B4000E82FF0E0EC5CFE4F008101C000E084E0A3
:100B5000089F80011124C7EAD1E0FC2E84E0F80E42
:100B6000FE012196DF01A00FB11F14966C918081C8
:100B70000E946705FC12F4CFDF91CF911F910F9176
:100B8000FF900895EF92FF920F931F93CF93DF93FF
:100B9000E82EF62EC7E0D0E0042F10E098010C2ECE
:100BA00002C0359527950A94E2F7B901617077275D
:100BB0008E2D0E94670561E08F2D0E94670560E021
:100BC0008F2D0E946705219748F7DF91CF911F91E4
:100BD0000F91FF90EF9008950F931F93CF9309E922
:100BE00011E0C9E0F80161918F018C2F0E94670527
:100BF000C150C530B9F7CF911F910F910895CF9390
:100C0000DF9390E0FC01E656FF4F2491FC01EA5788
:100C1000FF4F8491882361F190E0880F991FFC01B8
:100C2000E859FF4FC591D491FC01EE58FF4FA591B3
:100C3000B491611109C09FB7F894888120958223EF
:100C40008883EC912E230BC0623061F49FB7F89437
:100C50003881822F809583238883EC912E2B2C93CF
:100C60009FBF06C08FB7F894E8812E2B28838FBFD3
:100C7000DF91CF910895CF93DF93CDE9D1E061E08B
:100C800089810E94FF0560E089810E94670561E01B
:100C900088810E94670561E089810E94670560E0A4
:100CA0008981DF91CF910C94FF0560E080919E01D6
:100CB0000E94FF0561E080919D010E94670580917F
:100CC0009E010E943E050197D1F360E080919D0155
:100CD0000C9467050F931F93CF93DF931F92CDB7AB
:100CE000DEB7482F0DE911E061E0F8018181498309
:100CF0000E94FF0561E0F80181810E94670561E0C3
:100D0000F80180810E94670560E0F80181810E94FE
:100D1000670560E0F80180810E9467054981F8015C
:100D2000608181810F90DF91CF911F910F910C9481
:100D3000C2050F931F93CF93DF931F92CDB7DEB7FA
:100D4000482F0DE911E061E0F801818149830E949B
:100D5000FF054981F801608181810F90DF91CF917A
:100D60001F910F910C94C205CF93DF939091A60130
:100D7000992349F194EE9093BC009091BC0097FFA9
:100D8000FCCF90ED9093BB0094EC9093BC009091BD
:100D9000BC0097FFFCCF8093BB0084EC8093BC0029
:100DA0008091BC0087FFFCCF6093BB0084EC8093F4
:100DB000BC008091BC0087FFFCCF84E98093BC001D
:100DC000DF91CF910895C62FD82F80ED0E946A063B
:100DD0000E9455068D2F0E9499060E9455068C2F61
:100DE0000E9499060E945506DF91CF910C943B0614
:100DF0001F93CF93DF93883168F56C3358F54C33EC
:100E000048F5C42FD62F1AE0612F0E943A0E692FA1
:100E100020E1829F600D112482E00E94B4068D2F94
:100E2000612F0E943A0E692F20E1829F600D1124EC
:100E300081E00E94B4068C2F612F0E943A0E692F28
:100E400020E1829F600D112480E0DF91CF911F91FE
:100E50000C94B406DF91CF911F9108951F93CF9307
:100E6000DF93982F8FEF890F8F31A0F58FEF860FCB
:100E70008C3080F5405D5740483E23E0520750F5E6
:100E8000D62FC92F1AE0842F612F0E943A0E692FA6
:100E900020E1829F600D112486E00E94B4068D2F10
:100EA000612F0E943A0E692F20E1829F600D11246C
:100EB00085E00E94B4068C2F612F0E943A0E692FA4
:100EC00020E1829F600D112484E0DF91CF911F917A
:100ED0000C94B406DF91CF911F910895DF92EF92A9
:100EE000FF920F931F93CF93DF93CDB7DEB7289771
:100EF0000FB6F894DEBF0FBECDBF8091A601882348
:100F000009F446C084EE8093BC008091BC0087FF4A
:100F1000FCCF80ED8093BB0084EC8093BC0080917B
:100F2000BC0087FFFCCF1092BB0084EC8093BC0018
:100F30008091BC0087FFFCCF84EE8093BC00809141
:100F4000BC0087FFFCCF81ED8093BB0084EC8093D5
:100F5000BC008091BC0087FFFCCFEFE9F1E094EC8E
:100F60009093BC008091BC0087FFFCCF8091BB00B8
:100F7000819371E0E63AF70799F784E88093BC0023
:100F80008091BC0087FFFCCF84E98093BC0069C0DE
:100F900080ED0E946A060E94550680E00E94990634
:100FA0000E94550681ED0E946A060E94550600E0E7
:100FB00010E060E080919E010E94FF0587E0E82E2E
:100FC000F12CD12C61E080919D010E9467058091F8
:100FD0009E010E943E0599270E2C01C0880F0A949D
:100FE000EAF7D82A60E080919D010E94670581E0C0
:100FF000E81AF10838F7F801E356FE4FD28261E0B3
:1010000080919E010630110549F00E94FF0560E0C5
:1010100080919D010E94670560E008C00E94FF0565
:1010200060E080919D010E94670561E080919E01D2
:101030000E94670561E080919D010E94670560E064
:1010400080919D010E94670560E080919E010E9451
:10105000FF050F5F1F4F0730110509F0AACF0E944F
:101060003B0680919F01482F4695469546954E70C8
:10107000942F990F990F490F8F70480F8091A001FD
:10108000382F3695369536953E70932F990F990FD8
:10109000390F8F70380F8091A101282F2F7087FF93
:1010A00008C085FB992790F98CE0989F200D1124AA
:1010B00009C08073869586958695982F990F990F0C
:1010C000890F280FE091A2016091A3017091A40102
:1010D0008091A501562F5695569556955E70952F81
:1010E000990F990F590F6F70560F672F6695669578
:1010F00066956E70962F990F990F690F7F70670F25
:10110000982F92959F708F707AE0979F800D112491
:1011100090E08053984F9F838E83782F8F819E2FEE
:1011200028960FB6F894DEBF0FBECDBFDF91CF91EA
:101130001F910F91FF90EF90DF9008958E3008F08F
:101140008E508770806480937C0080917A008064E8
:1011500080937A0080917A0086FDFCCF80917800A0
:101160002091790090E0922B08958F929F92AF92F8
:10117000BF92CF92DF92EF92FF926B017C010E94AF
:1011800019054B015C01C114D104E104F104F1F033
:101190000E941905DC01CB0188199909AA09BB092C
:1011A000883E9340A105B10570F321E0C21AD10831
:1011B000E108F10888EE880E83E0981EA11CB11C9E
:1011C000C114D104E104F10419F7DDCFFF90EF90D1
:1011D000DF90CF90BF90AF909F908F9008952FB7E2
:1011E000F894609191017091920180919301909196
:1011F00094012FBF0895CF93DF9300D0CDB7DEB712
:10120000789484B5826084BD84B5816084BD85B5E1
:10121000826085BD85B5816085BD80916E008160ED
:1012200080936E0010928100809181008260809393
:101230008100809181008160809381008091800095
:101240008160809380008091B10084608093B100C0
:101250008091B00081608093B00080917A008460BA
:1012600080937A0080917A00826080937A008091E6
:101270007A00816080937A0080917A008068809300
:101280007A001092C10061E089E00E94FF0561E0F0
:1012900088E00E94FF0561E087E00E94FF0561E0B1
:1012A00086E00E94FF058AE08093A7018BE080938F
:1012B000A8018CE08093A9018DE08093AA0127EA20
:1012C000E22E21E0F22E14E01E0D61E0F701819183
:1012D0007F010E94FF051E11F8CF61E082E00E94AD
:1012E000FF0560E080E10E94FF0560E081E10E946F
:1012F000FF0560E083E00E94FF0560E084E00E945B
:10130000FF0560E08EE00E94FF0560E08FE00E9434
:10131000FF0561E081E00E94FF0560E082E00E943D
:10132000670510927501809177018078809377012D
:101330001092760180919E01823101F580919D018C
:101340008331E1F481E08093A60161E082E10E94B3
:10135000670561E083E10E9467058091B9008E7F97
:101360008093B9008091B9008D7F8093B9008CE0A3
:101370008093B80085E08093BC0007C01092A6015E
:1013800061E080919D010E94FF050E946E07A22FDF
:1013900020935A0130935B0140935C0150935D01AF
:1013A00060935E0170935F0180936001909361018F
:1013B000E0905F01F0906001062F10E0E52FF0E073
:1013C00050E0632F70E09F018A2F90E00E94D401CB
:1013D00068EE73E080E090E00E94B50811E01093A1
:1013E000990110929A0110929B0110929C010E9407
:1013F00094041092990110939A0110929B011092FB
:101400009C010E9494041092990110929A011093E9
:101410009B0110929C010E949404109299011092D9
:101420009A0110929B0110939C010E9494040E94C7
:10143000EF08609378017093790180937A0190931B
:101440007B010E94EF0860937C0170937D01809383
:101450007E0190937F010E94EF086093800170935A
:101460008101809382019093830100E010E087E185
:10147000F82E9BE3E92E332433940E94EF088090EA
:10148000780190907901A0907A01B0907B01681565
:1014900079058A059B0561F00E9402040E94EF080D
:1014A000609378017093790180937A0190937B0126
:1014B0000E94EF0880907C0190907D01A0907E01B9
:1014C000B0907F01DC01CB0188199909AA09BB09F9
:1014D0004497A105B10508F409C28091760181FD08
:1014E000E5C180E10E943E059091690180FB90F981
:1014F0009093690190FF96C0809175018F7031F5CE
:1015000080917701982F9877983029F46CE370E0F8
:1015100080E090E0C2C0903129F460E17EE080E09C
:1015200090E0BBC09111BBC090917601392F331F61
:101530003327331F282F2770220F232B223009F443
:10154000A1C061E070E080E090E0A7C08130A9F523
:1015500080917701982F9877983029F460E07DE8A2
:1015600087E290E006C0903139F460E871E581E0EF
:1015700090E00E949F0015C0911113C090917601D8
:10158000392F331F3327331F282F2770220F232B88
:10159000223039F4906890937601887F816080933F
:1015A00077010E94B0020E94BA00C0906801D12C5D
:1015B000FEE4CF1AF8EFDF0ABEC0823009F0FBC0AC
:1015C00080917701982F98779830E9F480916B019A
:1015D0008C3318F48F5F80936B0180916B018C3397
:1015E00008F4E7C010926B0180916C01883118F407
:1015F0008F5F80936C0180916C01883108F4D9C0B1
:1016000010926C01D6C0903179F39111D2C09091B3
:101610007601906890937601887F8093770130926D
:101620006A01C7C081E10E943E059091690180FB7B
:1016300091F99093690191FFC7C0809175018F70F6
:1016400009F040C080917701982F9877983029F45D
:1016500064EC7FEF8FEF9FEF20C0903129F460EFB3
:1016600071EF8FEF9FEF19C0911119C09091760122
:10167000392F331F3327331F282F2770220F232B97
:10168000223041F4906890937601887F8160809346
:10169000770105C06FEF7FEFCB010E949F000E9492
:1016A000B0020E94BA004091620149830E94600327
:1016B0008A830E94680349816A810E94F8060E9419
:1016C000B80379C0813009F042C080917701982F2A
:1016D0009877983029F460E073E788ED9FEF06C0B3
:1016E000903139F460E87EEA8EEF9FEF0E949F0010
:1016F00017C0911115C090917601991F9927991FD4
:101700008770880F892B823059F480917601806828
:101710008093760180917701887F81608093770143
:101720000E94B0020E94BA00C0906801D12C2EE441
:10173000C21A28EFD20A0E9450038A830E945803DB
:10174000A6016A810E942E070E94700334C0823075
:1017500091F58091770188778830D9F480916B0179
:101760008C3318F4815080936B0180916B018C3322
:1017700000F1E0926B0180916C01883118F4815086
:1017800080936C0180916C01883198F0F0926C012B
:1017900010C0803181F381110CC0809176018F7768
:1017A0008093760180917701887F809377011092F2
:1017B0006A010E948C000E9402040E9402040E949E
:1017C00002040E94020462C083E00E943E059091E0
:1017D000690180FB92F99093690192FF25C0809185
:1017E0007501982F9F7039F4807F81608093750117
:1017F0000E94700310C0913039F4807F8260809322
:1018000075010E948C0007C0923059F5807F80934B
:1018100075010E94B8030E9402040E9402040E9403
:1018200002040E9402041DC084E00E943E059091C3
:10183000690180FB93F99093690193FF4DC08091FA
:101840007701982F987719F48778886008C09830C6
:1018500019F48778806103C0903119F487788093F8
:10186000770190917601392F331F3327331F8091F1
:101870007701282F2770220F232B223039F490680C
:1018800090937601887F81608093770180917601C3
:101890008260809376010E94EF08609384017093C8
:1018A0008501809386019093870116C00E94EF08FE
:1018B0008090840190908501A0908601B09087016E
:1018C000DC01CB0188199909AA09BB09893C91055A
:1018D000A105B10508F087C10E94EF0860937C0163
:1018E00070937D0180937E0190937F010E94EF08A9
:1018F0008090800190908101A0908201B09083013E
:10190000DC01CB0188199909AA09BB09883E9340DB
:10191000A105B10508F4DAC08EE00E949E085C01C2
:101920008FE00E949E086C01B50180E090E00E946B
:101930002F0F2AE939E94CEC52E40E94BD0E4B010D
:101940005C016093710170937201809373019093B5
:101950007401B60180E090E00E942F0F20E030EC8F
:101960004FE752E40E94BD0E2B013C0160936D01D4
:1019700070936E0180936F019093700126E636E6B6
:1019800046EE50E4C501B4010E94B80E87FF13C0B3
:1019900020E030E040E251E4C301B2010E94E10FD7
:1019A00087FD09C061E082E00E94670580917601B1
:1019B0008160809376018091760180FF13C02BE7D0
:1019C00034E146E051E4C501B4010E94E10F87FD16
:1019D00009C060E082E00E946705809176018E7FF9
:1019E0008093760180917601982F991F9927991FEE
:1019F000809177018770880F892B815F8F7083308A
:101A000048F50E94680320916C0130E0821793072B
:101A100009F0EFC00E94600320916B0130E0821753
:101A2000930709F0E6C080917601382F331F3327E2
:101A3000331F90917701292F2770220F232B2330FA
:101A400009F4D7C0987F9160909377018770806682
:101A500080937601209175012F70223039F08091AA
:101A60006A01811112C030926A0111C08091760121
:101A7000982F991F9927991F809177018770880F58
:101A8000892B815F8F70823070F310926A016091B0
:101A90006A0185E029830E9467052981211103C01D
:101AA0000E94B80309C0213019F40E94700304C0D9
:101AB000223011F40E948C000E94EF086093800194
:101AC000709381018093820190938301D09077017C
:101AD0008D2D887731F10E94EF0880908C019090D5
:101AE0008D01A0908E01B0908F01DC01CB0188198F
:101AF0009909AA09BB098B3F9105A105B10588F099
:101B0000D7FC96C0809177018068809377010E940E
:101B1000EF0860938C0170938D0180938E019093F8
:101B20008F0120917601922F991F9927991F8091FB
:101B300077018770880F892B8230E9F526952695E5
:101B400026952F7009F440C029830E94EF088090E9
:101B5000880190908901A0908A01B0908B01DC01EE
:101B6000CB0188199909AA09BB0929818C349105EF
:101B7000A105B10548F18091760182FD02C0846023
:101B800001C08B7F80937601215F822F8F70880F39
:101B9000880F880F909176019778892B8093760132
:101BA0000E94EF08609388017093890180938A01F5
:101BB00090938B0109C0882311F0833029F422FF10
:101BC00003C02B7F209376016091760162FB66272C
:101BD00060F981E00E9467050115110509F44DCCFB
:101BE0000E9400004ACC809176018D7F809376011F
:101BF00073CE0E94600320916B0130E0821793073F
:101C000009F428CF90917601392F331F3327331FE2
:101C100080917701282F2770220F232B233009F082
:101C200019CF906890937601887F8093770112CFC7
:101C3000809177018F7769CFEDE9F1E082E18183CF
:101C400083E18083EAE5F1E08EED97E0968385837A
:101C500081E08483838310821182128283E08783F0
:101C600088E2E0E0F1E0ABEAB1E001900D928A9504
:101C7000E1F70895991B79E004C0991F961708F0C1
:101C8000961B881F7A95C9F78095089597FB072EB4
:101C900016F4009407D077FD09D00E949E0E07FC31
:101CA00005D03EF4909581959F4F0895709561956C
:101CB0007F4F0895A1E21A2EAA1BBB1BFD010DC088
:101CC000AA1FBB1FEE1FFF1FA217B307E407F507EC
:101CD00020F0A21BB30BE40BF50B661F771F881FC8
:101CE000991F1A9469F760957095809590959B015E
:101CF000AC01BD01CF010895A29FB001B39FC00107
:101D0000A39F700D811D1124911DB29F700D811D27
:101D10001124911D08950E947C0EA59F900DB49FE3
:101D2000900DA49F800D911D11240895B7FF0C9470
:101D30008B0E0E948B0E821B930B0895AA1BBB1B5C
:101D400051E107C0AA1FBB1FA617B70710F0A61BBB
:101D5000B70B881F991F5A95A9F780959095BC01DC
:101D6000CD010895EE0FFF1F0590F491E02D099429
:101D70000E946C0F08F481E008950E94D10E0C942B
:101D8000A70F0E94A00F58F00E94990F40F029F46D
:101D90005F3F29F00C94900F51110C94DB0F0C94C1
:101DA000960F0E94B80F68F39923B1F3552391F36E
:101DB000951B550BBB27AA2762177307840738F0BA
:101DC0009F5F5F4F220F331F441FAA1FA9F335D017
:101DD0000E2E3AF0E0E832D091505040E695001CCB
:101DE000CAF72BD0FE2F29D0660F771F881FBB1F85
:101DF000261737074807AB07B0E809F0BB0B802D63
:101E0000BF01FF2793585F4F3AF09E3F510578F08E
:101E10000C94900F0C94DB0F5F3FE4F3983ED4F3E7
:101E2000869577956795B795F7959F5FC9F7880F62
:101E3000911D9695879597F90895E1E0660F771FB4
:101E4000881FBB1F621773078407BA0720F0621B45
:101E5000730B840BBA0BEE1F88F7E0950895E89496
:101E600009C097FB3EF490958095709561957F4FE2
:101E70008F4F9F4F9923A9F0F92F96E9BB27939590
:101E8000F695879577956795B795F111F8CFFAF4A0
:101E9000BB0F11F460FF1BC06F5F7F4F8F4F9F4FD1
:101EA00016C0882311F096E911C0772321F09EE82F
:101EB000872F762F05C0662371F096E8862F70E095
:101EC00060E02AF09A95660F771F881FDAF7880F6F
:101ED0009695879597F90895990F0008550FAA0BC5
:101EE000E0E8FEEF16161706E807F907C0F012162D
:101EF0001306E407F50798F0621B730B840B950B30
:101F000039F40A2661F0232B242B252B21F4089584
:101F10000A2609F4A140A6958FEF811D811D089521
:101F200097F99F6780E870E060E008959FEF80EC8C
:101F3000089500240A94161617061806090608952F
:101F400000240A9412161306140605060895092E95
:101F50000394000C11F4882352F0BB0F40F4BF2B04
:101F600011F460FF04C06F5F7F4F8F4F9F4F089544
:101F700057FD9058440F551F59F05F3F71F047953A
:101F8000880F97FB991F61F09F3F79F0879508951F
:101F9000121613061406551FF2CF4695F1DF08C03E
:101FA000161617061806991FF1CF8695710561055B
:101FB00008940895E894BB2766277727CB0197F903
:101FC00008950E946C0F08F48FEF0895F894FFCFE6
:101FD00000000000000000010000010000000101FD
:101FE00000010000000100010001010000010101E9
:101FF00001000000010000011F1C1F1E1F1E1F1FEB
:0E2000001E1F1E1F020908040106030705002B
:00000001FF
